:100000000C942A000C9447000C9447000C94470071
:100010000C9447000C9433070C9447000C94470051
:100020000C9447000C9447000C9447000C94470034
:100030000C9447000C9447000C9447000C94470024
:100040000C9447000C9447000C9447000C94470014
:100050000C94470011241FBECFE5D8E0DEBFCDBF12
:1000600010E0A0E6B0E0E0ECFEE002C005900D92EA
:10007000AE3AB107D9F710E0AEEAB0E001C01D9288
:10008000A43BB107E1F70E9481050C945E070C9434
:100090000000CF93C82F60E041E00E9481008C2FC8
:1000A00061E041E00E9481008C2F62E041E00E940B
:1000B00081008C2F63E041E00E948100CF91089580
:1000C000CF93C82F64E041E00E9481008C2F65E04F
:1000D00041E00E9481008C2F66E041E00E94810097
:1000E0008C2F67E041E00E948100CF91089590E05D
:1000F00070E00E945D03089590E070E00E9491031B
:100100000895843409F471C0853448F4823499F137
:10011000833408F04DC0813409F083C00FC08236AB
:1001200051F1833620F4813609F07BC007C0833655
:1001300009F43EC0843609F074C057C0413069F4F8
:100140002AB381E090E0AC0102C0440F551F6A95CC
:10015000E2F7BA01622B6ABB08952AB381E090E00E
:10016000AC0102C0440F551F6A95E2F7BA016095D1
:1001700062236ABB0895413069F427B381E090E0BF
:10018000AC0102C0440F551F6A95E2F7BA01622B19
:1001900067BB089527B381E090E0AC0102C0440F33
:1001A000551F6A95E2F7BA016095622367BB08950F
:1001B000413069F424B381E090E0AC0102C0440F07
:1001C000551F6A95E2F7BA01622B64BB089524B308
:1001D00081E090E0AC0102C0440F551F6A95E2F740
:1001E000BA016095622364BB0895413069F421B37C
:1001F00081E090E0AC0102C0440F551F6A95E2F720
:10020000BA01622B61BB089521B381E090E0AC019B
:1002100002C0440F551F6A95E2F7BA016095622348
:1002200061BB0895843409F471C0853448F4823484
:1002300099F1833408F04DC0813409F083C00FC0B8
:10024000823651F1833620F4813609F07BC007C035
:10025000833609F43EC0843609F074C057C041307B
:1002600069F42BB381E090E0AC0102C0440F551F4C
:100270006A95E2F7BA01622B6BBB08952BB381E05C
:1002800090E0AC0102C0440F551F6A95E2F7BA0135
:10029000609562236BBB0895413069F428B381E017
:1002A00090E0AC0102C0440F551F6A95E2F7BA0115
:1002B000622B68BB089528B381E090E0AC0102C0D6
:1002C000440F551F6A95E2F7BA016095622368BB37
:1002D0000895413069F425B381E090E0AC0102C09B
:1002E000440F551F6A95E2F7BA01622B65BB08956A
:1002F00025B381E090E0AC0102C0440F551F6A9520
:10030000E2F7BA016095622365BB0895413069F454
:1003100022B381E090E0AC0102C0440F551F6A9502
:10032000E2F7BA01622B62BB089522B381E090E04C
:10033000AC0102C0440F551F6A95E2F7BA016095FF
:10034000622362BB08958434B1F1853438F4823479
:10035000E1F0833428F58134C1F50CC08236A9F070
:10036000833618F4813689F505C08336C9F08436A2
:1003700061F521C029B330E0C90102C09595879588
:100380006A95E2F7982F917020C026B330E0C9013A
:1003900002C0959587956A95E2F7982F917015C0E0
:1003A00023B330E0C90102C0959587956A95E2F7BD
:1003B000982F91700AC020B330E0C90102C0959512
:1003C00087956A95E2F7982F9170892F0895843464
:1003D00009F43DC0853440F48234F9F0833450F59B
:1003E000813409F040C00CC08236B9F0833618F46D
:1003F0008136C9F505C08336E9F08436A1F527C0FA
:100400002BB381E090E0AC0102C0440F551F6A9508
:10041000E2F7BA0162276BBB089528B381E090E050
:10042000AC0102C0440F551F6A95E2F7BA0162277A
:1004300068BB089525B381E090E0AC0102C0440F91
:10044000551F6A95E2F7BA01622765BB089522B38A
:1004500081E090E0AC0102C0440F551F6A95E2F7BD
:10046000BA01622762BB08958434D9F0853438F428
:10047000823499F0833498F48134A1F40CC082362C
:1004800061F0833618F4813669F405C0833639F09B
:10049000843641F406C06ABB089567BB089564BB07
:1004A000089561BB08958434D9F0853438F48234DA
:1004B00099F0833498F48134A1F40CC0823661F051
:1004C000833618F4813669F405C0833639F08436F2
:1004D00041F406C06BBB089568BB089565BB0895E1
:1004E00062BB08958434D9F0853438F4823499F0AD
:1004F000833498F48134A1F40CC0823661F08336E1
:1005000018F4813669F405C0833639F0843641F435
:1005100006C089B3089586B3089583B3089580B360
:100520000895843409F1853438F48234A9F0833491
:10053000B8F48134E1F40CC0823671F0833618F4DB
:100540008136A9F405C0833659F0843681F40CC095
:100550008BB380958BBB089588B3809588BB089535
:1005600085B3809585BB089582B3809582BB08953D
:10057000843409F480C0853448F48234C1F1833472
:1005800008F057C0813409F097C00FC0823679F166
:10059000833620F4813609F08FC007C0833609F412
:1005A00048C0843609F088C066C0413091F42BB34E
:1005B00081E090E0AC0102C0440F551F6A95E2F75C
:1005C000BA01822F842B8BBB8AB3609568236ABBE8
:1005D00008952BB381E090E0AC0102C0440F551F99
:1005E0006A95E2F7BA01609562236BBB08954130CA
:1005F00091F428B381E090E0AC0102C0440F551F94
:100600006A95E2F7BA01822F842B88BB87B3609585
:10061000682367BB089528B381E090E0AC0102C075
:10062000440F551F6A95E2F7BA016095622368BBD3
:100630000895413091F425B381E090E0AC0102C00F
:10064000440F551F6A95E2F7BA01822F842B85BBB0
:1006500084B36095682364BB089525B381E090E07E
:10066000AC0102C0440F551F6A95E2F7BA016095CC
:10067000622365BB0895413091F422B381E090E09C
:10068000AC0102C0440F551F6A95E2F7BA01822FF0
:10069000842B82BB81B36095682361BB089522B32C
:1006A00081E090E0AC0102C0440F551F6A95E2F76B
:1006B000BA016095622362BB08956F70843451F172
:1006C000853438F48234C1F08334E8F4813441F560
:1006D0000CC0823689F0833618F4813609F505C0DE
:1006E000833689F08436E1F415C08BB3807F8BBBF1
:1006F0008BB3682B6BBB089588B3807F88BB88B3AE
:10070000682B68BB089585B3807F85BB85B3682B54
:1007100065BB089582B3807F82BB82B3682B62BBC6
:1007200008956295607F843451F1853438F48234C1
:10073000C1F08334E8F4813441F50CC0823689F08D
:10074000833618F4813609F505C0833689F084367E
:10075000E1F415C08BB38F708BBB8BB3682B6BBB75
:10076000089588B38F7088BB88B3682B68BB0895E1
:1007700085B38F7085BB85B3682B65BB089582B345
:100780008F7082BB82B3682B62BB0895CF93C82F52
:1007900090E060E070E041E050E00E9481008C2F2A
:1007A00090E061E070E041E050E00E9481008C2F19
:1007B00090E062E070E041E050E00E9481008C2F08
:1007C00090E063E070E041E050E00E9481008C2FF7
:1007D00090E064E070E041E050E00E94B8028C2FAD
:1007E00090E065E070E041E050E00E94B8028C2F9C
:1007F00090E066E070E041E050E00E94B8028C2F8B
:1008000090E067E070E041E050E00E94B802CF91D4
:1008100008958F929F92AF92BF92CF92DF92EF9204
:10082000FF920F931F93CF93DF93CDB7DEB76197FE
:100830000FB6F894DEBF0FBECDBFDE011196E0E625
:10084000F0E090E101900D929150E1F79FEF998BCC
:10085000CC24DD24F82EEE248F2D9E2D60E070E058
:1008600041E050E00E9412018F2D9E2D61E070E06A
:1008700041E050E00E9412018F2D9E2D62E070E059
:1008800041E050E00E9412018F2D9E2D63E070E048
:1008900041E050E00E94120146018F2D9E2DB601CD
:1008A00040E050E00E94120100E010E05801B80161
:1008B0006C5F7F4F8F2D9E2D0E94A301882369F4CA
:1008C000F401EE0FFF1FEE0FFF1FAE0EBF1EFE0165
:1008D000EA0DFB1D8181898B06C00F5F1F4F04301D
:1008E000110521F714C0898961960FB6F894DEBF0F
:1008F0000FBECDBFDF91CF911F910F91FF90EF9071
:10090000DF90CF90BF90AF909F908F900895089404
:10091000C11CD11C84E0C816D10409F09DCFE3CFDF
:1009200084E460E041E00E9412018FE99FE00197BA
:10093000F1F700C0000084E460E040E00E94120192
:100940008FE99FE00197F1F700C000000895CF9371
:10095000C82F682F62956F7081E490E070E00E946C
:100960005D0384E461E040E00E9412010E94900473
:100970008FEC97E00197F1F700C0000081E490E070
:100980006C2F70E00E945D030E9490048FEC97E052
:100990000197F1F700C00000CF91089581E460E075
:1009A00041E00E94810081E461E041E00E94810019
:1009B00081E462E041E00E94810081E463E041E083
:1009C0000E94810084E460E041E00E94810084E4B0
:1009D00061E041E00E94810082E00E94A7048FE173
:1009E0009EE40197F1F700C0000088E20E94A7048E
:1009F0008FEC97E00197F1F700C0000081E00E94C2
:100A0000A7048FE19EE40197F1F700C0000086E0A3
:100A10000E94A7048FEC97E00197F1F700C0000057
:100A20008EE00E94A7048FEC97E00197F1F700C0D9
:100A300000000895CF93C82F682F62956F7081E4EE
:100A400090E070E00E945D0384E461E041E00E9478
:100A500012010E9490048FEC97E00197F1F700C01B
:100A6000000081E490E06C2F70E00E945D030E9422
:100A700090048FEC97E00197F1F700C00000CF9150
:100A80000895CF93DF93EC018881882331F021967C
:100A90000E941A0589918823D9F78FEC97E0019776
:100AA000F1F700C00000DF91CF91089581E00E942E
:100AB000A7048FE19EE40197F1F700C000000895BC
:100AC000282F2150223070F4662371F0613170F4C8
:100AD000813019F4962F91580AC0823041F4962F34
:100AE000915405C090E803C090E801C090E8892FB8
:100AF0000E94A7048FEC97E00197F1F700C0000077
:100B0000089582E60E94C6030E94CE0481E60E94F8
:100B10006000A09AA19AA29AA39AA49AA59A80E7A3
:100B200090E00E94410582E061E00E9460058BE751
:100B300090E00E9441050E9444070F2EFFE96F2EAE
:100B4000F0E07F2EF02D0F2EF0E7AF2EF0E0BF2E5D
:100B5000F02D0F2EFBE78F2EF0E09F2EF02D0F2EA5
:100B6000F5E84F2EF0E05F2EF02D0F2EFCE82F2E33
:100B7000F0E03F2EF02DDEEFCAE01DEF0BEF0F2E61
:100B8000F7EFFF2EF02D0F2EFFEEEF2EF02D0F2E94
:100B9000FFEDDF2EF02D82E60E9409048093B30062
:100BA0008F3F09F4E2C0813309F0C5C00E945605A9
:100BB000C2010E94410581E065E00E9460058FEF5F
:100BC00094E3ACE081509040A040E1F700C0000009
:100BD00082E60E9409048093B1008F3FC9F30E940E
:100BE0001A058FE79BE8A8E081509040A040E1F70C
:100BF00000C0000082E60E9409048093B2008F3F8B
:100C0000C9F30E941A058FE79BE8A8E08150904045
:100C1000A040E1F700C000009091B2009051809197
:100C2000B100880F282F220F220F820F890F809387
:100C3000AE000E945605C1010E94410581E067E0B7
:100C40000E94600582E60E9409048093B1008F3FF4
:100C5000C9F30E941A058FE79BE8A8E081509040F5
:100C6000A040E1F700C0000082E60E9409048093E2
:100C7000B2008F3FC9F30E941A058FE79BE8A8E0F6
:100C800081509040A040E1F700C000009091B20078
:100C900090518091B100880F282F220F220F820FD0
:100CA000890F8093AF000E94560585E990E00E946D
:100CB000410581E068E00E94600582E60E94090427
:100CC0008093B1008F3FC9F30E941A058FE79BE81C
:100CD000A8E081509040A040E1F700C0000082E60B
:100CE0000E9409048093B2008F3FC9F30E941A0545
:100CF0008FE79BE8A8E081509040A040E1F700C05A
:100D000000009091B20090518091B100880F282F7F
:100D1000220F220F820F890F8093B0000E94560588
:100D2000C5010E94410582E061E00E946005C401A6
:100D30000E9441051AC00E945605C3010E94410548
:100D40008FEF99E6A8E181509040A040E1F700C004
:100D500000000E945605C5010E94410582E061E045
:100D60000E946005C4010E944105D5BB8091B0007E
:100D70006C2F0E94520781E6692F0E947C00AFE031
:100D8000B7E21197F1F700C0000015BB8091B000E9
:100D90006C2F0E945207682F81E60E947C008FE032
:100DA00097E20197F1F700C000008091AF006C2F2F
:100DB0000E94520781E6692F0E947C0005BBAFE0CC
:100DC000B7E21197F1F700C00000F5BA8091AF00CB
:100DD0006C2F0E945207682F81E60E947C008FE0F2
:100DE00097E20197F1F700C00000E5BA8091AE00EC
:100DF0006C2F0E94520781E6692F0E947C00AFE0B1
:100E0000B7E21197F1F700C00000D5BA8091AE00AB
:100E10006C2F0E945207682F81E60E947C008FE0B1
:100E200097E20197F1F700C000008091B0008C3389
:100E300039F41092B0008091AF008F5F8093AF00C3
:100E40008091AF008C3339F41092AF008091AE00E6
:100E50008F5F8093AE008091AE00883109F09BCE09
:100E60001092AE0098CE1F920F920FB60F921124DF
:100E70008F938091B0008F5F8093B0008F910F901F
:100E80000FBE0F901F90189582B5886082BD85B502
:100E9000816085BD85B5846085BD789489B780649F
:100EA00089BF0895991B79E004C0991F961708F02F
:100EB000961B881F7A95C9F780950895F894FFCFFF
:100EC0003738392F3435362A3132333441303D2BDF
:100ED0007072657373203120746F007365742063C2
:100EE0006C6F636B00686F75722D2D006D696E7588
:100EF00074202D2D007365636F6E64202D2D007797
:0E0F0000726F6E672063686F696321210000C5
:00000001FF
